S01300006E657572616C5F666C6F772E7372656373
S3150200000060300022993600027D34000295360002E5
S3150200001095360002953600029536000295360002A4
S3150200002000000000000000000000000095360002FB
S315020000309536000200000000953600029536000251
S30D02000040612B00029129000266
S315020000480101000008000022000000007C310022A5
S31502000058E43100224C3200220000000000000000B9
S315020000680000000000000000000000000000000080
S315020000780000000000000000000000000000000070
S315020000880000000000000000000000000000000060
S30902000098000000005C
S315020000A00348044B834202D0034B03B118477047FF
S315020000B0540000225400002200000000064B0749AB
S315020000C0C91A891048BF0131491003D0044B0BB13C
S315020000D001481847704700BF54000022540000220E
S315020000E00000000010B5064C237843B9FFF7D8FF8D
S315020000F0044B13B10448AFF300800123237010BDF3
S3150200010090300022000000004800000208B5054BAE
S315020001101BB105490548AFF30080BDE80840FFF76B
S31502000120CDBF00BF0000000094300022480000024C
S3150200013000F012B8022800D0704708B504490548F5
S3150200014002F086F8BDE80840012003F03BBA00BF82
S31502000150503C0002C03000222DE9F04F4349444F83
S31502000160C8888B880A680344DFF8108183B002EBE3
S31502000170830340483A60C8F8003002F027FA00B11B
S31502000180FEE73C4802F06EF8A8B93B4C2378002BF8
S31502000190FCD000252846257001F064F9DFF8E090CE
S315020001A02946C9F8000001F0C3F9DFF8D8A0CAF859
S315020001B0000008B1FEE7FEE79B21D9F8000000F037
S315020001C0BBFACAF8000000B1FEE70121D9F8000027
S315020001D000F0D2FACAF8000000B1FEE703220221BB
S315020001E0D9F8000000F0EAFA0346A0BB214ECAF88D
S315020001F000004FF0000B3D689D4208BFD8F8005042
S3150200020000222946304602F045F828BB0023237017
S315020002102378002BFCD0D9F8000001F08FFC4FF4B4
S3150200022016734022CDE900324FF4806329461A46FE
S31502000230CAF80000D9F8000001F0D6FE0021CAF87B
S315020002400000D9F8000001F08DFDD9F8000001F098
S31502000250B3FC2B46CDE7FEE784F800B02378002BEB
S31502000260FCD040F2EE339842CAD0CFE7B83B000248
S31502000270BC300022C8300022B4300022B83000223E
S31502000280B0300022AC3000220378032B02D10122C7
S31502000290014B1A70704700BFB430002208B5FFF751
S315020002A047FF002008BD00BF2DE9F0410446D0F803
S315020002B07230D0F87620806E82B0C7060D46CDE940
S315020002C00032616C01D403294FDD204600F072FE34
S315020002D01922D4F8B83103F10801C4F8B811C3E9F8
S315020002E00025D4F8BC31013B002BC4F8BC3103DC39
S315020002F02046D4F8C03198470022D4F8B83103F129
S315020003000801C4F8B811C3E90022D4F8BC31013B94
S315020003109342C4F8BC3103DC2046D4F8C031984776
S315020003200121636DD4F8B82143F0A07343F48053DE
S3150200033002F10800C4F8B801C2E90013D4F8BC31CE
S31502000340013B002BC4F8BC3103DC2046D4F8C03193
S31502000350984700222046694601F074FC204600F0C8
S3150200036029FE002002B0BDE8F081042797FBF1F7D1
S31502000370206C90FBF7F107FB11000028A5D1E16B79
S315020003808E07A2D1E16C88079FD143F30B100FFAB7
S3150200039083FC002899D1013942F30B10884216B228
S315020003A093D1A16C072900F3CB80002910DB072922
S315020003B00ED8DFE801F004D90DC80D0DC2B205F062
S315020003C07F4141EA15612D0E41EA054141EA0525C3
S315020003D0A6EB0C0820461E14C6EB224600F0EAFDE8
S315020003E01922D4F8B8314FEA281803F10801C4F8E3
S315020003F0B811C3E90025D4F8BC313611013B002BF4
S3150200040008F1010806F10106C4F8BC3103DC2046F6
S31502000410D4F8C0319847D4F8B83103F10802C4F8C9
S31502000420B8210022C3E90022D4F8BC31013B934231
S31502000430C4F8BC3103DC2046D4F8C0319847D4F85E
S31502000440B831624903F10802C4F8B8210122C3E9AE
S315020004500021D4F8BC31013B002BC4F8BC3103DCCB
S315020004602046D4F8C0319847236C1F2193FBF7F33B
S31502000470D4F8B8219BB202F10800C4F8B8011160A1
S315020004805360D4F8BC31013B002BC4F8BC3103DC09
S315020004902046D4F8C0319847B8FBF7F31E21D4F8AA
S315020004A0B82143EA064302F10800C4F8B801C2E9DA
S315020004B00013D4F8BC31013B002BC4F8BC3103DC79
S315020004C02046D4F8C0319847636C022B6BD0042BBC
S315020004D057D0012B7FF442AF2020BDF90220BDF98F
S315020004E00030216C12111B1101FB0233D4F8B82122
S315020004F0E16B02F108051944C4F8B851C2E90001DA
S31502000500D4F8BC31013B002BC4F8BC313FF726AF0F
S315020005102046D4F8C031984720E705F0F0014FEAAB
S31502000520152E41EA157128090EF47045294300F487
S315020005307060014301EB01454AE74FEA356547E73B
S3150200054041297FF445AF290C280B00F4706001F4B1
S3150200055070410143280A00F0F000C5F30315014378
S31502000560294301EB014533E7290A680901F4784179
S3150200057000F4FC60C5F3C4050143294301EB0145C0
S3150200058026E7BDF90220BDF90030216C12111B11BC
S3150200059001FB0233D4F8B821E16B202002F10805F1
S315020005A001EB8301A8E7BDF90220BDF90030216CF9
S315020005B012111B1101FB0233D4F8B821E16B202082
S315020005C002F1080501EB430196E700BF0010600146
S315020005D02DE9F04106464FF4BE7001F0F3F80446E9
S315020005E0002800F096806FF07F424FF07F4346600E
S315020005F0C4E902224FF4B05200254FF48031C4E917
S315020006005333C4F854314FF0FF3702201023C4F895
S315020006101C214FF47032C4F8101184F8D5002761FA
S31502000620C4F8285184F80E51A382D6F88030C4F853
S315020006303421042284F8E9204FF4002213F0006FDB
S315020006403B4B08BF4FF480039FED356B9FED367B26
S3150200065040F2011E4FF0400CC4F82C214FF0AA08BC
S315020006600122C4E94F55C4F82031C4F84451706DD3
S3150200067084ED317F034343F4012343F4C063C4E9A9
S315020006804581C4F82431C4F83011C4F8162084F820
S31502000690D420A4F8D6E0C4F8D8C004F11C0084F82B
S315020006A00F51C4E93F55A4F80C21C4E94155C4F8D9
S315020006B0485101F001F804F1340000F0FDFF04F1A5
S315020006C04C0000F0F9FF04F1640000F0F5FF04F1BC
S315020006D07C0000F0F1FF04F1940000F0EDFF04F15C
S315020006E0AC0000F0E9FF0C22124B3046C4F8E430AD
S315020006F02146C4E93757C4F8387184F8E82001F076
S3150200070039FBF36920462360F46186F8C651BDE8D9
S31502000710F081012586F8C6512046BDE8F08100BF6A
S31502000720AA00000004000000000000001000000003
S31502000730080040200103030300B5436A024693F80A
S3150200074012C093F80E018C4540F0010E18BF40F01E
S31502000750070083F80EE118BF83F80E01987D99749D
S31502000760C0074FF0000044BF0906C3F84C1182F8D7
S31502000770C6015DF804FB00BF00B5436A024693F862
S3150200078016C093F80E018C4540F0010E18BF40F0DA
S315020007900700997583F80EE118BF83F80E01C907A1
S315020007A058BF4FF07F414FF0000044BF997C0906C5
S315020007B0C3F84C1182F8C6015DF804FB10B4446A12
S315020007C0032994F80E31844643F0010384F80E316E
S315020007D027D81A4B53F82110032A22D8DFE802F051
S315020007E02B04022841F480610022D4F82001D4F8B7
S315020007F02C31C4F81C110343DCF854000343D4F82B
S315020008003C010343D4F840010343D4F844010343B3
S315020008100B43C4F824318CF8C62110465DF8044B0C
S31502000820704710228CF8C62110465DF8044B7047BB
S3150200083041F4A051D8E741F48051D5E7483F000280
S31502000840F8B5064614200D46B76900F0BBFF00282E
S3150200085035D000238560C360B36E044605EB85057B
S31502000860D8074FEA850113D5084600F0ABFF606052
S3150200087010B300232361B36ED90705D4D6F88430AA
S31502000880DA0613D49B0707D4002323602046F8BD5B
S31502000890304600F0D5FFEAE7A268042102EB8202A5
S315020008A03846920002F098F92061EDE70146384693
S315020008B002F09CF92061E7E7204600F085FF00245C
S315020008C0E4E700BFF8B5876911B306460C460CE0AB
S315020008D0304600F0D7FF2A691AB1D6F884309B0752
S315020008E00DD4284600F070FF94B12546B36E2468F5
S315020008F0DA076968ECD5084600F066FFEBE738468A
S31502000900042102F06DF9284600F05EFF002CECD1BE
S31502000910F8BD00BF10B583680446186838B10022D6
S315020009204368C26023618368A060E36110BD216AE7
S315020009302068FFF785FF10B1A3681860EFE715225C
S31502000940236883F8C72110BD2DE9F04145690446A5
S3150200095082B0002D3CD0C169AB69002933D102684F
S31502000960012BD2F8188040F2978086682F69B26808
S31502000970736802EB820203EB820307EB8207F268DB
S3150200098000690AB11760F160834207D91A1A013A5F
S3150200099022F003028021043203F094F8D6E90123FF
S315020009A0102603EB830329699B004046009602F05A
S315020009B021F9AB692F61013BAB61204602B0BDE86C
S315020009C0F041FFF7A7BF012B23D002B0BDE8F081AB
S315020009D040F2FF310369774A1A6003695D6006696E
S315020009E08368321DDA600369996003F10C02C369F8
S315020009F00261013BC0E90653FFF78CFF236893F9B6
S31502000A00C731002B7DD1A3685B68736002B0BDE875
S31502000A10F081E96902680129D2F8188041D9EE68A5
S31502000A200139A768E9617068002800F0AE80FB68AA
S31502000A30002B55D018600023FB60A2692369032AA4
S31502000A400FD8DFE802F05840023340F2FF311A882D
S31502000A50D96042F0004242F400021A6003F1100229
S31502000A60226100211027E369A268013BE361A161CB
S31502000A70D2E9012303EB830329699B0040460097D1
S31502000A8002F0B8F87368002B97D0331DEB607268DA
S31502000A906B692A61AB6190E7E9690129BFD88CD1FC
S31502000AA0012B04BF152382F8C73186E71A6822F0A4
S31502000AB07F4242F000421A6040F2FF321A61236915
S31502000AC014332361CDE740F2FF311A78996042F080
S31502000AD0802242F400021A6003F10C022261C0E78E
S31502000AE02369344A1A60236958602369A268043369
S31502000AF0D3602369083340F2FF3243F8042B2361A3
S31502000B00AFE72369A269A3F10C012161032A11D877
S31502000B10DFE802F0162D1E0240F2FF3153F80C2CCC
S31502000B20596022F07F4242F0004243F80C2C2369BE
S31502000B30143323610022E369013BC4E9062344E737
S31502000B4040F2FF31A3F1080243F80C1C2261F1E7DF
S31502000B50194640F2FF3033F80C2C42F0004242F4C0
S31502000B60000243F80C2C41F8040B2161E2E740F243
S31502000B70FF3113F80C2C43F8041C42F0802242F495
S31502000B80000243F80C2C2361D4E7AA68042102EB85
S31502000B9082024046920002F01FF8706000287FF43D
S31502000BA046AF0122236883F8C721706800283FF404
S31502000BB044AF3CE73280808083690269032B0CD8FC
S31502000BC0DFE803F0100220111146137843F0802368
S31502000BD043F4000341F8083B01610022C369013B6B
S31502000BE0C0E90623704711461368002223F07F43AB
S31502000BF043F0004341F8103BC3690161013BC0E980
S31502000C000623EFE711461388002243F0004343F41C
S31502000C10000341F80C3BC3690161013BC0E90623AD
S31502000C20E0E700BF10B504460068816E11F02001AE
S31502000C3004D13B2200F5BC7002F044FF636862698E
S31502000C40C4E9023362B11368D36063691A68126831
S31502000C501A6163695A68DA6163695A699A616368F3
S31502000C600022596821619B68E262C4E9062310BD2D
S31502000C702DE9F0474FF000080D4686692C6814F0FE
S31502000C80803F14D0B4F1803F3DD02204E7B23CD578
S31502000C90322F00F09680394630466A6800F03AFDF7
S31502000CA0202F65D0AC68083514F0803FEAD15FFA90
S31502000CB084FA514630466A6800F02CFDBAF1200FDC
S31502000CC0C4F30729C4F307474FEA14644CD04946D4
S31502000CD03046AA6800F01EFDB9F1200F40D0394611
S31502000CE03046EA6800F016FD202F35D02146304600
S31502000CF02A6900F00FFD202C2AD01435BEE7002CFD
S31502000D0042DBFF2F17D00435B8E72302F7D5FF2FB2
S31502000D10C4F3072430D0394630466A6800F0FAFC3C
S31502000D20202F55D021463046AA6800F0F3FC202C2D
S31502000D304AD00C35A2E7C4F30728B8F1020F02D055
S31502000D40B8F1040F3DD13046043500F0E9FC95E7D1
S31502000D50304600F0E5FCD0E7304600F0E1FCC5E79E
S31502000D60304600F0DDFCBAE7304600F0D9FCAEE7CB
S31502000D70304600F0D5FC95E7022C21D1304600F032
S31502000D80CFFCA046043579E7394630466A6800F05A
S31502000D90C1FC202FC4F30729C4F3074424D04946D3
S31502000DA03046AA6800F0B6FCB9F1200F18D02146E9
S31502000DB03046EA6800F0AEFC202C0DD010355DE717
S31502000DC0A0464046BDE8F087304600F0A9FCB0E7F1
S31502000DD0304600F0A5FCA5E7304600F0A1FCEDE7A1
S31502000DE0304600F09DFCE2E7304600F099FCD6E77B
S31502000DF02DE9F04F876EC468D0E96D5117F02007D0
S31502000E00A1EB050881462268A66983B04FEAE80885
S31502000E1051D1A942236945D002F5BC718946DFF852
S31502000E2090A1083502F18C0B019005E00137B84517
S31502000E3005F1080534D9226892F9C72103EB860E1B
S31502000E40701C6ABB55E9022C1AF8021061B119F935
S31502000E50021019B15BF822106145E7D04FF001018B
S31502000E6009F802104BF822C09A55CEF804C0E26A7D
S31502000E7010F0030602F10102E262D7D1E2692369A8
S31502000E80013A1433012A2361E261CFD82046A661D2
S31502000E900137FFF759FDB845236905F10805CAD898
S31502000EA0DDF80490A6614023D9F8B421C9E96E237E
S31502000EB003B0BDE8F08FE36A4344E36292F9C731B7
S31502000EC0002BF0D126B32069B8F1000FEBD04246D1
S31502000ED005F1080301E0083386B153E90217013A26
S31502000EE0815500EB860106F101061D464F6006F0AC
S31502000EF0030608F1FF38EED1002ED4D10022236971
S31502000F0014332361E369013B012BC4E906234BD960
S31502000F105FEA98074FF0000605D125E00136BE428A
S31502000F2005F1200520D0236893F9C731E3B92A6871
S31502000F3023691A70AA685A702A699A70AA69DA70BD
S31502000F406A685A60EA689A606A69DA60EA691A61E6
S31502000F50E3692269013B1432012B2261E361DDD888
S31502000F602046FFF7F1FCD9E718F003089BD008F1F9
S31502000F70010805F1080305EBC805AC460EE0A169B8
S31502000F80206953E902574A1C083300EB810602F036
S31502000F900302634545547760A26184D0226892F9C0
S31502000FA0C721002AEBD07EE72046FFF7CDFCAFE74C
S31502000FB0583F000238B50446FFF71AFFE068826917
S31502000FC00369032A0FD8DFE802F03326021940F23A
S31502000FD0FF451A8803F1100142F0004242F4000272
S31502000FE01A60DD6001610022C369013B012BC0E981
S31502000FF0062323D9002084F8C60138BD40F2FF41FA
S315020010001A68196122F07F4242F000421A600369AF
S3150200101014330361E7E740F2FF451A7803F10C0146
S3150200102042F0802242F400021A609D600161DAE712
S3150200103040F2FF4243F8042B0361D4E7FFF784FC36
S31502001040002084F8C60138BD2DE9F041036882B05C
S315020010509D6E15F0010526D1D0E90274BC42804688
S315020010609E6912D0236830461BB1E2680AB11B6939
S315020010701360A368626803EB830321699B000095F2
S3150200108001F0B8FD2468A742ECD10025D8F81C006F
S31502001090A36862681B1A03EB8303216930469B002F
S315020010A0009501F0A7FD02B0BDE8F08103689A6ED3
S315020010B0D20720D42DE9F041D0E90264B4420746B2
S315020010C09D690BD0A368626803EB8303042128465B
S315020010D09B0001F097FD2468A642F3D1FA69A36842
S315020010E028469B1A03EB830362680421BDE8F0419C
S315020010F09B0001F087BD704703689A6ED20726D41B
S315020011002DE9F041D0E90264B44207469D6911D047
S315020011102368042128461BB1E2680AB11B691360E1
S31502001120A368226903EB83039B0001F06BFD24682D
S31502001130A642EDD1FA69A36828469B1A03EB8303FC
S3150200114022690421BDE8F0419B0001F05BBD7047B6
S315020011502DE9F0410C46054682B008681746FFF7AE
S3150200116047FEA2692369032A0FD8DFE802F0423557
S31502001170022840F2FF311A88D96042F0004242F456
S3150200118000021A6003F1100222610022E369013BA8
S31502001190C4E90623EB6F002B55D06369002B46D0BA
S315020011A06FBB00232046E361FFF7CEFBA2686369AB
S315020011B0E260002B60D0186902B0BDE8F08140F20F
S315020011C0FF311A68196122F07F4242F000421A602A
S315020011D0236914332361D8E740F2FF311A78996004
S315020011E042F0802242F400021A6003F10C022261EC
S315020011F0CBE740F2FF3243F8042B2361C5E7002513
S31502001200206800F003FAE169A268D2E901235B1AB9
S31502001210616903EB830309699B00009501F0EAFC0F
S315020012202046FFF7FFFC002318466362C4E7D5F8A1
S31502001230843020469A0730D4DB0629D5FFF75CFFB7
S31502001240002FAED0ECE7D4F80880D8F8003053B3BC
S31502001250A36A01333C2BA3629FD1D8F8006000E059
S31502001260884631463668002EFAD12068FFF72AFBF7
S31502001270C8F80060A66290E7D5F8843013F0120F22
S3150200128002D01069002897D1206902B0BDE8F0812A
S31502001290FFF70CFF002F84D0C2E7FFF7D5FE002F21
S315020012A03FF47FAFBCE7A36277E700BFB1F9343002
S315020012B00A6B002B0FDD002310B41C46043A42F8D9
S315020012C0044FB1F9340001339842F8DC00235DF88B
S315020012D0044BCB8670470023CB867047F8B5B1F92D
S315020012E03400B1F93660431EB3420C461746096B09
S315020012F006DD731CB00041F82670E3860844F8BD8B
S31502001300103000B2A0860122800000F05FFAB4F924
S31502001310343001469E422063EBDA35460022B000A5
S3150200132001EB860343F8042BB4F934C00135AC450E
S31502001330F8DC731C41F82670E3860844F8BD00BF4A
S315020013402DE9F843002708604F61D0F87C800646F5
S315020013500C46B8F1000F74D0D8F8003020204B604C
S3150200136000F030FA05466061002867D0D8F8080018
S31502001370800000F027FA8146286000285ED0D8F85F
S3150200138008106960D6F88830D8F8042003FB02F208
S31502001390AA60D8F804306B6171B1012307606A68EC
S315020013A09A4206D92A6842F823706A6801339A4239
S315020013B0F8D8D5F80090AA68C5F80C9002EB82021C
S315020013C00421B069920001F007FCC9F800002B68FD
S315020013D01B68002B32D069686A692B61C5E9062150
S315020013E06068E06050B300231022A060416821616A
S315020013F081684020C4E90631C4E90A33A28600F0B6
S31502001400E1F92063D0B1636903B31B681A68B4F9C2
S315020014103430002B09DD00231D46011F41F8045F0D
S31502001420B4F9340001338342F8DB00232146304607
S31502001430E386FFF753FF0120BDE8F8830020BDE8ED
S31502001440F8831146FFF7FCF96060CAE7D6F88420F4
S31502001450636812F0120F02D01A69002AD7D15A68AD
S31502001460D5E700BFF8B505464FF4EA7000F0AAF9D1
S315020014700446002857D000264FF0000202234FF4FC
S315020014800011A0F8C621C0E90666C0E912368566D3
S3150200149041650665FFF79CF8A6EE100B6A0684ED19
S315020014A0087F03D4702000F08DF90646002315F05C
S315020014B0040F0CBF05210421C4E90D33C4E90F331F
S315020014C0C4E91B3384F8C63184F8C43163646367A4
S315020014D0A4F87830636180EF50602B074FF0330039
S315020014E04FF000054FF0010748BF21F00401221D0D
S315020014F02663676682ED007F40F22712C4F88800F1
S31502001500E16504F18C0029462566E56702F0DAFA00
S315020015100822064BC4F88050196884F8C851216025
S3150200152084F8C5211C602046F8BD00BFD8300022D1
S3150200153070B5044600F0C8F8A06100285ED03B22D0
S31502001540002104F5BC7002F0BDFAE56F7DB1D4F856
S3150200155088102046FFF774F906462E602046D4F816
S315020015608810FFF76DF930602B681A681360D4F89B
S3150200157088202046114600F049FA0346D4F888200E
S3150200158023611146204600F041FA22690346606152
S31502001590F2B1E8B10025C4E9022263604FF400709B
S315020015A0656300F00FF9184B4022C4F8C0310346B8
S315020015B00A21C4E96D33A069C4F8BC2184F8C95173
S315020015C001F084FA48B9002384F8C631184670BD82
S315020015D0012384F8C631184670BDFF232A460A2124
S315020015E0A06901F049FA2A460A21A06901F060FAC7
S315020015F0FF2804BF012384F8C931E4E7052384F8F0
S31502001600C631184670BD00BFF10D000280697047F1
S31502001610002843D038B5436E04468B420D4617D098
S31502001620082B1AD0082929D000F006FB0021626A8D
S3150200163092F80E3143F0010382F80E31626A84F8A1
S31502001640C611656692F80E3143F0010382F80E3137
S31502001650002384F8C631184638BD426A616692F89C
S315020016600E3143F0010382F80E3100F0D1FA082D53
S315020016700CD0002384F8C631184638BD426A61662A
S3150200168092F80E3143F0010382F80E31204600F043
S315020016909BFA002384F8C631184638BD02207047EB
S315020016A040B110B5044600F045F8002384F8C6316F
S315020016B0184610BD02207047002380EF5060036079
S315020016C080ED017F4361704738B50546084601F053
S315020016D0A1F90446B8B10122114601F0E9F9420125
S315020016E044BF012385F8C8318303C5F880000CD5B1
S315020016F0312201212046EB6D01F0BEF9204601F0B0
S3150200170073FAC5F88400204638BDAB6E43F0010378
S31502001710AB66EDE78C4613460121624601F0ACB991
S3150200172010B5044600220121204601F0C1F9C30783
S31502001730F8D410BD38B5836E05468469D8070AD534
S3150200174001210022204601F0B3F98107F8D138BD04
S31502001750AB6E9A0707D500220121204601F0A8F9AF
S315020017600307F5D4F3E7C8220421204601F0E2F983
S31502001770F1E700BF70B54C680B6B816E0546C90771
S3150200178086690CD41A684AB190F9C91191B13046EA
S31502001790BDE870403222012101F06EB970BD5AB91E
S315020017A0002CFBD028466168FFF762FA0328F5D0C1
S315020017B02468F5E71346EAE71968BDE87040FFF7C3
S315020017C057BA00BF01F002BA01F002BA2DE9F041A0
S315020017D00D4668B306460846904601F0FBF90446F4
S315020017E048B386422F4602D23846BDE8F0813046DB
S315020017F001F0ECF90746F0B1B8F1000F12D0A408D7
S3150200180010D0A400A4F1040E4FEA9E0E0EF1010EB2
S3150200181002464EF001E02B1F53F8041F42F8041B48
S315020018200FF007C0284601F0D3F93846BDE8F0812B
S31502001830084601F0CDF900273846BDE8F08100BF21
S3150200184038B504460D46FFF7E1FED4F88430DA07D0
S3150200185011D4DB0604D42846BDE8384001F0B6B9F7
S315020018602A460421044601F0B7F901462046BDE89E
S31502001870384001F0BDB92A46BDE83840042101F0DE
S31502001880ABB900BF38B505460C46FFF7BFFED5F823
S315020018908430DA0711D4DB060AD52146054601F063
S315020018A0A5F9042102462846BDE8384001F098B958
S315020018B02046BDE8384001F08BB92246BDE83840E3
S315020018C0042101F08DB900BFF8B5C668D6E90F321A
S315020018D09A4221D0D0F8C0712F4D0446AF423FD074
S315020018E0FFF786FAE36FC3B12046FFF781FAF36B7F
S315020018F0C4F8BC31E26F6AB9E268516C1364C4F889
S31502001900B411936CC4F8B831D36CC4F8BC31136DFE
S31502001910C4F8C031F36B3364F8BDE368D4F8B4217C
S315020019205A64D4F8B8219A64D4F8BC21DA64D4F89B
S31502001930C0211A659A6BC4F8B421D3E90F10091AAB
S3150200194002EBC102C4F8B8211B6C2046C4E96F350C
S31502001950FFF74EFAF36BAF42C4F8BC31CAD1D9E7EE
S31502001960D0F8BC313364736CC0F8B431B36CC0F8D0
S31502001970B831F36CC0F8BC31336DC0F8C031FFF733
S3150200198037FAE36F002BC8D02046FFF731FAF36B24
S31502001990C4F8BC31BEE700BF9D190002012270B532
S315020019A0C5680446D5E90E1630019640FFF70EFFCC
S315020019B0C0B1D5E90F32F31A1A44C5E90F62A8631A
S315020019C083B1D4F8BC21E1681344C4F8BC318B6BF3
S315020019D0D4E96D02121A1344C4F8B8318B6BC4F8F9
S315020019E0B43170BDE36F33B1E368D4F8B4211B6C34
S315020019F0C4E96E2370BD2046FFF766FFE368D4F89C
S31502001A00B4211B6CC4E96E23F4E700BFF8B500B33A
S31502001A10022906460D4619D9022A174616D9582012
S31502001A20FFF7D0FE0446B8B1002301462A463046E7
S31502001A30A363FFF785FCE8B1F36F8BB10023C4E91A
S31502001A400873636586F8C6312046F8BD0D2386F80D
S31502001A50C63100242046F8BD012386F8C631F8E7D0
S31502001A604FF40070FFF7AEFEA06318B14023C4E93D
S31502001A700F33E3E70123204686F8C631FFF7A4FEBB
S31502001A80E7E700BFF8B505460C46FFF7B1F9EB6F7D
S31502001A902BB1EE68A64202D0776D002F35D0002C0E
S31502001AA031D000236365EC606B63626ACAB963690D
S31502001AB0F3B11B681E6821462846FFF7F7FB21464D
S31502001AC032462846FFF70AFCA96E11F0200104D11E
S31502001AD03B2205F5BC7001F0F5FF002085F8C60132
S31502001AE0F8BD63622046FFF79DF86369002BE0D1DB
S31502001AF0D5F88420636812F0120F02D01E69002EF8
S31502001B00D9D15E68D7E7AC68CBE73046FFF754F821
S31502001B103369094A31461A60336928465F60336978
S31502001B20B2680433D36033693A4608333361B76126
S31502001B30FFF70EFBB3E700BF328080802DE9F0414C
S31502001B40D0E90268C660736A044647686BBB012126
S31502001B50736D716263B9436E082B29D0E36F13B9B3
S31502001B602046FFF7B1FE012231462046FFF7F0FA82
S31502001B7001230022736531462046FFF7FBFD002351
S31502001B80736294F9C751C4F80C80A84684F8C73129
S31502001B903946204684F8C651FFF774FFC4E9016747
S31502001BA084F8C6514046BDE8F0811225A846EFE703
S31502001BB0FFF72EFDD2E700BF10B50446FFF770FD12
S31502001BC0002084F8C60110BDC36F03B17047C36815
S31502001BD0D0F8B41130B45964D0F8B8119A6B99643C
S31502001BE0D0F8BC11094CD964D0F8C0111965C0F8F7
S31502001BF0B4211D6CD96B491B02EBC102C0F8B82196
S31502001C001B6CC0E96F3430BC704700BF9D190002DF
S31502001C10C36F7BB9C368D0F8BC115A6C1964C0F89B
S31502001C20B4219A6CC0F8B821DA6CC0F8BC211B6DDD
S31502001C30C0F8C031704700BFC36F03B17047FFF7EA
S31502001C4043BE00BF2DE9F0410F464FF01F0CB1F91C
S31502001C500450B0F84010D0F8B83101EB0241B7F9A0
S31502001C60002003F1080EB7F90660AD1AB7F9022093
S31502001C70C0F8B8E1C3E900C1D0F8BC31B61A013BDD
S31502001C802D113611002B044605F1010506F1010658
S31502001C90C0F8BC3102DCD0F8C03198471E22D4F815
S31502001CA0B83105EB064503F10801C4F8B811C3E9DA
S31502001CB00025D4F8BC31013B002BC4F8BC3103DC4F
S31502001CC02046D4F8C0319847636C022B38D0042BD7
S31502001CD01ED0012B1AD12020B7F90220B7F9003005
S31502001CE0216C12111B1101FB0233D4F8B821E16BEE
S31502001CF002F108051944C4F8B851C2E90001D4F842
S31502001D00BC31013B002BC4F8BC3113DDBDE8F081C8
S31502001D10B7F90220B7F90030216C12111B1101FB31
S31502001D200233D4F8B821E16B202002F1080501EB59
S31502001D308301E0E72046D4F8C031BDE8F0411847F8
S31502001D40B7F90220B7F90030216C12111B1101FB01
S31502001D500233D4F8B821E16B202002F1080501EB29
S31502001D604301C8E710B50446FEF79EFA002084F840
S31502001D70C60110BD91F8E43010B5013B062B00F206
S31502001D80ED80DFE803F004151B22282F35004FF003
S31502001D907F434FF0FF0C1A46604691F8E5E0BEF12C
S31502001DA0070F77D8DFE80EF02C837BB4AEA8A172BA
S31502001DB091F8DC0003061A468446EEE700234FF04C
S31502001DC07F424FF0FF0C1846E7E700224FF07F43B1
S31502001DD0FF209446E1E7002391F8DCC018464FEA5B
S31502001DE00C62DAE7002291F8DC0094460306D4E797
S31502001DF091F8DC0091F8E0C003064FEA0C62CCE7EA
S31502001E004FF0000C604691F8E6E0BEF1070F5AD893
S31502001E10DFE80EF00498908A84655E554FF0000C58
S31502001E20604691F8E7E0BEF1070F00F29380DFE823
S31502001E300EF0072823201D19041291F8DF00034330
S31502001E4091F80E01C1F8583140F00403C1F85C2143
S31502001E5081F80E3110BD91F8DF4091F8E30023437B
S31502001E600243EDE791F8DF000243E9E743F0FF039F
S31502001E70E6E742F0FF02E3E791F8DF00034302439D
S31502001E80DEE743F0FF0342F0FF02D9E791F8DD00F7
S31502001E9091F8E1C043EA004342EA0C42B3E791F803
S31502001EA0DD00844643EA004342EA0042ABE74FF0D4
S31502001EB0FF0C43F47F03604642F47F02A3E791F8E6
S31502001EC0DE0091F8E2C043EA002342EA0C22A8E7C8
S31502001ED091F8DE004FF0000C43EA0023A1E791F8E7
S31502001EE0DEC0002042EA0C229BE791F8DD004FF0AB
S31502001EF0000C43EA004386E791F8DDC0002042EA7F
S31502001F000C4280E74FF0000CFF2043F47F037AE790
S31502001F104FF0FF0C002042F47F0274E74FF0000CF2
S31502001F20FF2043F47F437CE74FF0FF0C002042F48E
S31502001F307F4276E791F8DE00844643EA002342EACE
S31502001F4000226EE74FF0FF0C43F47F43604642F4F3
S31502001F507F4266E7034342EA0C0271E700231A4610
S31502001F609C46184619E700BFF0B5C66C054637B25F
S31502001F70006DBDF914C09F42D8BF06F1FF330FFAB8
S31502001F8080FED8BF1BB2E645DCBF00F1FF3C0FFA6C
S31502001F908CFC2CEAEC744FF0000C21EAE1718F42C2
S31502001FA022EAE272DCBF06F1FF3631B29645E64618
S31502001FB0D8BF00F1FF3023EAE373D8BF02B20901AA
S31502001FC01B0160461201240185F8C6C163F30F0E98
S31502001FD061F30F0C62F31F4C64F31F4EC5F872C017
S31502001FE0C5F876E0F0BD00BFF0B583B0DDE908566E
S31502001FF0072E0446C0E91335C1638664026409DC10
S31502002000002E10DB072E0ED8DFE806F03C4136081C
S315020020100D0D474C402E2FD0412E04D14FF44011C6
S31502002020022261656264E669BEB1D6F82C71D6F801
S315020020301C21606DD6F820113A430243D6F83C7152
S31502002040D6F840010A433A43D6F8441102430A43FA
S31502002050C6F824213668002EE7D10022013D2DB2B2
S31502002060013B2046114600951BB2FFF77DFF00207B
S3150200207084F8C60103B0F0BD4FF400110422616575
S315020020806264D0E70021012241654264CBE74FF446
S315020020908011022241654264C5E704220449426472
S315020020A04165C0E70222034942644165BBE700BFBE
S315020020B000012000000130002DE9F84F0388DBB152
S315020020C04FF0000A80464FF00109DFF8D4B0002431
S315020020D0314D4FEACA07D8F8043035F8022BD91920
S315020020E0898891420AD00134032CF4D1B8F8003021
S315020020F00AF1010A5345EAD8BDE8F88FDB5909FA15
S3150200210004F603F0B853B3F1807F244BF6B293F88A
S315020021104C2C12D0324230D104F120021BF812307C
S31502002120DB09E0D01BF81230012123F08003C8201E
S315020021300BF8123001F05EF9D5E7324210D004F105
S3150200214020021BF81230DB09CDD11BF81230012117
S3150200215043F08003C8200BF8123001F04BF9C2E7B6
S31502002160012001F0EDF90D4B012093F84C2C32437E
S3150200217083F84C2C01F0B4F9E1E7012001F0E0F913
S31502002180064B012093F84C2C22EA060283F84C2CCB
S3150200219001F0A6F9C0E700BF943F000200E001404B
S315020021A000202040F8B50646FFF786FFEFF31082BF
S315020021B0012383F31088234F3B681BB94020224931
S315020021C00B7508753B6801333B6082F310883388D0
S315020021D000211BB31D4D08E01B01134445F82340A3
S315020021E0328801318BB29A4218D9736853F831405A
S315020021F003EBC1029288E0034FEA1223D2B2EBD577
S3150200220002EB031055F820E024F4803C2EF4803EC5
S3150200221045F820E01B0145F820C0DEE7EFF3108207
S31502002220012383F310883B6813B13B68013B3B6093
S315020022303B681BB9802004490B75087582F3108828
S31502002240F8BD00BF54310022000D40400008404056
S3150200225008B5034B03600846FFF7A4FF002008BD3C
S3150200226054524F5001464FF0020C094B00201A6897
S3150200227042F480721A601A6842F001021A60D3F8B8
S31502002280402442F00102C3F8402481F800C070479E
S3150200229000303440F0B502F11103144D1B02E85828
S315020022A0C60720D412480468C4F30020E4051AD4F1
S315020022B0002915BF4FF0030E4FF0010E012700272C
S315020022C041F20C1C05EB022202F5895426686EF3D4
S315020022D001062660EC18676042F80C10EA5842F0D4
S315020022E00102EA50F0BD40F2EE30F0BD002034406B
S315020022F0003034402DE9F04F9246AC4C037B026825
S3150200230034F81360876885B0002A00F0EC8041F249
S315020023101C15A74A4FEA0A2CD25CA64B1207634445
S315020023205A5190F80CE0B1F9003034F81EB0A24CC4
S315020023308568A4881A469C42039580F29C809E4A30
S31502002340837BB2F900200468B1F902E00192002B06
S3150200235040F0D880984D1A46B5F806900293F1459A
S31502002360C0F2B480BEF1000FB0F80680C0F2D2808F
S31502002370A9EB0E09C1451FFA89F9B8BFC84641F251
S315020023800C1907FB06F68B4FF608674447F8094017
S31502002390447B002C847B56EA06B6002C00F09C8017
S315020023A041F210140026B0F810B03E51048A08FB20
S315020023B004F4019841F228191044024641F23018F9
S315020023C041F2181541F2241741F22C167B489B095B
S315020023D00BF1FF3B013B9BB200EA0B4B4BEA030BB3
S315020023E0029B00EA02421A43724BC4F30A04634494
S315020023F043F805B043F8092043F808206E4AB2F9BB
S315020024000220724400EA02402043D85198510A7AC7
S31502002410002A5FD0012A41F234104B7A14BF4FF4DE
S315020024207F04002441F2381141F20306614A4FEA61
S315020024300343624418BF43F080731350604B5450F9
S315020024401B68604A023342F82A30012141F25010D9
S315020024500024584A0AF11103944402EB03225A4B10
S315020024600CF589552E6051604CF800401970597070
S3150200247005B0BDE8F08F002BB0F804E05ADBE41A91
S315020024807445A4B2B8BFA6464B4BCEF30A05B3F9C0
S315020024900030046801930BFB0EF30295DB0890F8FB
S315020024A00E80B1F902E0B8F1000F03D0B0F8068051
S315020024B008FB03F39D06404D18BF23F03F03B5F812
S315020024C0069018BF4033F145BFF64CAF4FF0000EF1
S315020024D0F04654E70326B8E741F210103604C34625
S315020024E044463E5065E70120324B0AF1110403EBE4
S315020024F00A2101F5895103EB042308605A6005B0ED
S31502002500BDE8F08F0023B0F806801A46029308FB56
S3150200251003F3CFE7F044B8F1000FD7DD039D1FFAAE
S3150200252088F80BFB05F94FEAD9090EFB19444FF05F
S31502002530000E24E703EB0E04002C7FF700AFBBF17D
S31502002540070F20D84FF0010842461B4D5B42B5F9F2
S315020025500050954201951EDAB3FBF8F818FB02F813
S315020025600022AEEB080E1FFA8EF403FB0BFE0BFBEA
S3150200257004F3C4F30A0402940468DB0804EBEE04D1
S3150200258024F03F048BE740224FEADB08B2FBF8F265
S31502002590904612B2D9E7B3FBF8F208FB123292B2B6
S315020025A014445242A4B212B2DFE700BFA83F0002AF
S315020025B0B83F000200203440E83000220000FF0746
S315020025C0DC300022E030002200000022F8B50023B1
S315020025D005460C460370EFF31086012181F310883D
S315020025E0C14B9A6822F010029A609B68962000F00E
S315020025F001FF86F31088BD490B6843F480330B60F4
S31502002600D4F8842094F83C005379A0F1030012799F
S31502002610B0FA80F0B2FA82F2400903F03F0352099F
S3150200262043EA003343EA022343F04003C1F850343D
S3150200263094F84020D4F884300AB14FF4BC72C1F841
S31502002640E4230022A94EC6F8042493F9000093F964
S315020026500110471C93F9022040F07081481C40F09B
S315020026605781531C40F01C814FF0011C628E218D54
S315020026709F4B9E4FC1F30A0103EA02420A437A6064
S31502002680C7F808C0A18DB4F82AC00131CCF30A0CF0
S3150200269003EA014141EA0C013961E18E954E0131AD
S315020026A003EA0143A18E0022C1F30A010B43FB6038
S315020026B094F8453094F846101B0203EB014394F854
S315020026C0441020460B447B61A38D04F15C013380E8
S315020026D0E38E7380638DB380A38EF380FFF70AFEC9
S315020026E0012204F1680104F11400FFF703FE94F8D5
S315020026F03C20814B94F83D009B5C01284FEA033352
S3150200270043F0805008BF034694F83E0043F0807CB5
S31502002710012808BF6346794994F85870895C032AF0
S3150200272043F4007208BF1346D4F8840009042FB19B
S315020027308279022A00F0198141F480114FF4007C5B
S315020027404FF00227B56007200626684AC2F8C4334E
S315020027506B4BC2F8D413C2F8C8C3C2F8CC73C2F822
S31502002760D033E36F6B60D4F88030C5E90234A18EB2
S31502002770E38E0B44D2F85012013363F30A01C2F816
S315020027805012C2F84064C2F84404EB6893F9772009
S31502002790002A28DB93F874305A4C02F160401B0180
S315020027A05949DBB200F5614080F8003302F5C653A1
S315020027B044F8225051F8230020F4803041F82300D7
S315020027C051F82330BFF35F8F012153099B0002F0BA
S315020027D01F0203F1604303F5614301FA02F2C3F8F3
S315020027E080211A60EB6893F97820002A28DB93F897
S315020027F07530444C02F160401B014349DBB200F5DF
S31502002800614080F8003302F5C65344F8225051F86D
S31502002810230020F4803041F8230051F82330BFF31F
S315020028205F8F012153099B0002F01F0203F16043EF
S3150200283003F5614301FA02F2C3F880211A60EB68DC
S3150200284093F97920002A27DB93F876302D4C02F192
S3150200285060401B012C49DBB200F5614080F8003371
S3150200286002F5C65344F8225051F8230020F4803072
S3150200287041F8230051F82330BFF35F8F012153093A
S315020028809B0002F01F0203F1604303F5614301FA64
S3150200289002F2C3F880211A6001232B700020F8BDD2
S315020028A094F83F301BB90121104BC3F8281417497D
S315020028B00F4B51F822100D480A6842F007020A60CF
S315020028C0A28D618D03EA0242C1F30A010A43C0F8EE
S315020028D02024E18EA28E03EA0143C2F30A021343C5
S315020028E0C0F81034C0E600BF00302040003034404B
S315020028F00000FF07E8300022A03F00029C3F0002D2
S31502002900808080005831002200600040C03F0002F3
S3150200291094F83A3033B91C48D0F80C3443F010031B
S31502002920C0F80C34194B184853F82130196819604D
S31502002930238FC3F30A03C0F8083492E694F83030C2
S315020029402BB9D6F81C3443F01003C6F81C340F4BCF
S3150200295053F82000036843F002030360E38D0A483C
S31502002960C3F30A03C0F8183478E6427AC77912012B
S3150200297042EA0732877A007A3A4342EA002242F46E
S3150200298000121143DAE600BF00303440C03F0002B5
S3150200299030B51A4B1A491A68896801321A601B68DF
S315020029A083B023B900240025164BC3E90045012252
S315020029B0154B48681A705A7038B103228B686846FC
S315020029C001934B688DF800209847104AD2F8483494
S315020029D043F00103C2F84834EFF30383103B0C4A79
S315020029E05BB203F5C65352F8231021F4803142F844
S315020029F0231052F8233003B030BD00BFDC30002272
S31502002A00E8300022E030002200000022003034408C
S31502002A1000600040F8B50126154C6660EFF310879A
S31502002A2086F31088134DAB6823F04003AB60AB68A6
S31502002A309620314600F0DEFC87F31088204600F02F
S31502002A404FF808B12046F8BD0746EFF3108486F327
S31502002A501088AB6843F04003AB60AB689620314602
S31502002A6000F0C8FC84F310883C462046F8BD00BF3F
S31502002A70F430002200302040012904D00A2900D077
S31502002A80704743607047322A06D0920002F1402214
S31502002A9002F588021360704741680029F5D053F8A1
S31502002AA0041B024AC2F8C810036070470040444043
S31502002AB0012904D00A290CBF406800207047920001
S31502002AC002F1402202F588021068704701291DBFF3
S31502002AD0A1F10A00B0FA80F040090846704700BF2B
S31502002AE070B42E260E4B0F4D1B780F4A0F4C1B014E
S31502002AF00F49DBB2C5F8C06082F800332060D1F816
S31502002B00003323F48033C1F80033D1F80033BFF326
S31502002B105F8F0120C2F88001106070BC704700BF51
S31502002B20B43B00020040444000E100E0583100227C
S31502002B3000C000400949931C086828B922B1013B2C
S31502002B4009D10B68002BFCD0002308680B60C01A61
S31502002B5018BF01207047013AEEE700BFFC300022A1
S31502002B6010B4EFF303832E20144A103B11685BB2B4
S31502002B708906C2F8C0000DD5114951F823104868DC
S31502002B80B0B1086804689CB10068C2F8C8000A6857
S31502002B9004320A600B4A03F5C65352F8231021F495
S31502002BA0803142F8231052F823305DF8044B704707
S31502002BB005490A6801320A60ECE700BF004044405A
S31502002BC05831002200600040FC30002200F0BCBEFA
S31502002BD000F0C2BE01207047104600F0B5BE00BF2D
S31502002BE0104600F0B9BE00BF012070470846704784
S31502002BF00846704708B5084611461A4600F082FF95
S31502002C00012008BD012070471D4A92F82630928C99
S31502002C10DBB202F00F02A2F1080103292BD8DFE88A
S31502002C2001F020160C021749174A51F82330A2FB6D
S31502002C3003231B09154A136070471249124A51F8B9
S31502002C402330A2FB0323114ADB08136070470D49A8
S31502002C500D4A51F82330A2FB03230C4A9B0813604A
S31502002C6070470849084A51F82330A2FB0323074A52
S31502002C705B0813607047034951F82330D340D9E704
S31502002C8000E0014060300022ABAAAAAA70310022FD
S31502002C90704700BF4AF20351F8B5594B594AB3F887
S31502002CA0FA43A3F8FA1353680746D903A4B21AD50E
S31502002CB0544B00255A68920329D50026504A524998
S31502002CC092F8753092F86D2003F00F0302F00F02AE
S31502002CD051F82330072A00F28E80DFE802F0292914
S31502002CE029888A828486EFF31086012585F3108867
S31502002CF0536843F48033536053689620294600F0A4
S31502002D0079FB86F310883F4B5A689203D5D4EFF3CA
S31502002D101086012181F310885A6842F400325A6003
S31502002D205B68962000F066FB86F310880226C5E7EC
S31502002D30012101FA02F2B3FBF2F30121334AA2FBAB
S31502002D4003239B0C03FA01F000F054FB2C4A92F881
S31502002D50753043F0400382F8753092F87530DB091E
S31502002D60FBD07B78264982F86D303B7843F04003EE
S31502002D7082F875303B7882F8753091F87530DB0948
S31502002D80FBD135B9BEB91E4B44F42544A3F8FA4328
S31502002D90F8BDEFF31085012181F31088194B5A68AB
S31502002DA022F480325A605B68962000F023FB85F39A
S31502002DB01088002EE7D0EFF31085012181F31088E9
S31502002DC0104B5A6822F400325A605B68962000F073
S31502002DD011FB85F310880A4B44F42544A3F8FA4301
S31502002DE0F8BD0322A7E70522A5E70A22A3E70622E2
S31502002DF0A1E708229FE71021083A01FA02F29AE7B0
S31502002E0000E00140003020406030002283DE1B4398
S31502002E104AF203529FEDBC4B9FEDBD5BC24BC348CA
S31502002E20C34930B5C3E90801C24CC3499FEDBA6B29
S31502002E309FEDBB7B9962A4F8FA23A3EC045F83B0EF
S31502002E4083ED007FFFF7E0FE09230A2284F8502A69
S31502002E5084F8A23094F8003C23B994F8013C9C070C
S31502002E6000F06382B34C94F8003C002B00F05282CF
S31502002E700022B04B83F8012C83F8002C0022AD4BC4
S31502002E8083F8362083F8322093F83C201007FBD5CE
S31502002E9040F2234400204FF6021140F25142A74D60
S31502002EA0C3F8C850A3F84E4083F84A00C3F8AC10E2
S31502002EB0A3F84C20BFF34F8FBFF36F8FA04A51691F
S31502002EC021F400315161C2F85002BFF34F8FBFF3B4
S31502002ED06F8F9C490A6822F440520A60BFF34F8FF3
S31502002EE0BFF36F8F0120197D924A60F302011975B3
S31502002EF0137DD906FCD4934A136843F440531360F6
S31502002F00BFF34F8FBFF36F8FA2F57342536913F46A
S31502002F10003311D1BFF34F8FBFF36F8FC2F8503218
S31502002F20BFF34F8FBFF36F8F536943F4003353617F
S31502002F30BFF34F8FBFF36F8F00237E4A82F82A308A
S31502002F4092F83C309B06FBD500227F4B1A701A780A
S31502002F501A781A785A68FA2A04D07C4959605A684B
S31502002F60FA2AFBD1784B9A687D2A04D0784999606F
S31502002F709A687D2AFBD1052242F220116D4B7548D3
S31502002F801862998483F82620FFF73EFE01219620D7
S31502002F9000F030FA6C4A5368C3F30903642B84BF0A
S31502002FA001231370FFF730FE4AF201526A4B1A8070
S31502002FB0BFF35F8F01221A72BFF35F8F4FF4254171
S31502002FC05C4A198092F8DA3043F0400382F8DA302C
S31502002FD092F8DA30DB09FBD0C923032082F8D40049
S31502002FE082F8DA3092F8DA30524903F0BF0382F8F7
S31502002FF0DA3091F8DA30DB09FBD10124802081F83E
S31502003000534081F83E3081F83E0091F87430494AC7
S3150200301043F0400381F8743092F87430DB09FBD038
S3150200302007204A210A23434C82F86C0082F8741066
S3150200303082F8743094F87430DB09FBD14FF0070341
S3150200304001A8ADF80430FFF725FE94F87630394A28
S3150200305043F0400384F8763092F87630DB09FBD0F1
S31502003060CA23032082F86E0082F8763092F8763010
S31502003070304903F0BF0382F8763091F87630DB09E7
S31502003080FBD191F855302B4A43F0400381F8553075
S3150200309092F85530DB09FBD0CA23022082F854008D
S315020030A082F8553092F85530224903F0BF0382F870
S315020030B0553091F85530DB09FBD191F857301D4A4E
S315020030C043F0400381F8573092F85730DB09FBD0C2
S315020030D0C723002082F8560082F8573092F85730FC
S315020030E0144903F0BF0382F8573091F85730DB09D1
S315020030F0FBD191F85D300F4A43F0400381F85D3011
S315020031002CE000BFAFF30080006CDC0200127A00F4
S315020031100080000000366E010080000000CA9A3B63
S315020031200046C3235543DE13603000220084D717BE
S315020031300008AF2F00E0014000389C1C022B010062
S3150200314000ED00E000E001E000C01340FA00001EBE
S315020031507D0000E1323423320020004092F85D30D7
S31502003160DB09FBD0C62082F85C3082F85D0092F85B
S315020031705D30704903F0BF0382F85D3091F85D302F
S31502003180DB09FBD191F878306A4A43F0400381F8B3
S31502003190783092F87830DB09FBD0C923022082F816
S315020031A0700082F8783092F87830624903F0BF03F3
S315020031B082F8783091F87830DB09FBD191F85F30EC
S315020031C05C4A43F0400381F85F3092F85F30DB09D6
S315020031D0FBD0CA2082F85E3082F85F0092F85F3038
S315020031E0544903F0BF0382F85F3091F85F30DB0980
S315020031F0FBD191F877304F4A43F0400381F877309C
S3150200320092F87730DB09FBD0CA23042082F86F00DC
S3150200321082F8773092F87730464903F0BF0382F896
S31502003220773091F87730DB09FBD191F85B30414A70
S3150200323043F0400381F85B3092F85B30DB09FBD048
S31502003240CA23022082F85A0082F85B3092F85B3079
S31502003250384903F0BF0382F85B3091F85B30DB0933
S31502003260FBD191F8DB30334A43F0400381F8DB307F
S3150200327092F8DB30DB09FBD0C523022082F8D500A9
S3150200328082F8DB3092F8DB302A4903F0BF0382F87A
S31502003290DB3091F8DB30DB09FBD191F8DC30254AD3
S315020032A043F0400381F8DC3092F8DC30DB09FBD0D6
S315020032B0C52082F8D63082F8DC0092F8DC301D494F
S315020032C003F0BF0382F8DC3091F8DC30DB09FBD176
S315020032D091F8DE30174A43F0400381F8DE3092F867
S315020032E0DE30DB09FBD0C923092082F8D80082F838
S315020032F0DE3092F8DE300F4903F0BF0382F8DE308B
S3150200330091F8DE30DB09FBD14FF42543A1F8FA33FD
S3150200331003B030BD0121C82084F8001C00F06AF811
S3150200332094F8003C012BFBD1A2E54FF47A70FFF72B
S31502003330AFFCA3E500E0014038B50025284C012189
S31502003340C82084F8285000F055F884F8245094F8E0
S315020033502430002BFBD194F82430214943F0020398
S3150200336084F8243091F82430C3F340009B07F9D443
S315020033701B4A81F8220092F8223003F0FF00002B4C
S31502003380F9D192F84030164960F3C71382F84030FB
S3150200339091F84030DB09FBD191F84200104A63F301
S315020033A0C71081F8420092F84230DB09FBD192F84D
S315020033B044000B4963F3C71082F8440091F8443085
S315020033C0C3F3C014DB09F9D1012000F0B9F8054BAB
S315020033D0012083F84C4CBDE8384000F081B800BFAC
S315020033E00020204000E00140A0F101000028FBD1AE
S315020033F0704700BF1E4B1F4A1B6800FB01F1934238
S3150200340013D302F1854202F5071203F5742302F67D
S31502003410834203F23F23A2FB03239B0CA3FB01314E
S315020034204FF0FF30E1B1FFF7DFBF4FF47A7210B40D
S31502003430114C4FF0FF30B4FBF3F3A1FB02C434B9D5
S31502003440BCFBF3F080B15DF8044BFFF7CDBFB1FBD7
S31502003450F3F1A1FB0212002AF5D1084620B1F2E7E8
S315020034601846002BDFD170475DF8044B704700BF4A
S315020034707031002200127A0000CA9A3BF8B5002485
S3150200348001260D4B0D4FD3F80021D3F820511540DC
S3150200349006FA04F32B4204D057F82430E0B203B103
S315020034A098470134152CF3D1034AC2F81051D2F8C9
S315020034B020312B42FBD1F8BD00C000400031002272
S315020034C0054B1A8812B10549C1F800235B8813B16E
S315020034D0024AC2F804337047443F000200C000406B
S315020034E0EFF31081012383F31088124B33F8102077
S315020034F092B22AB133F81020013A92B223F8102080
S3150200350033F810309BB293B910B40B4A0B4CB2F895
S31502003510FA3334F810009BB243F4254323EA00033E
S31502003520A2F8FA3381F310885DF8044B704781F3F1
S31502003530108870476031002200E00140004200021C
S3150200354030B4EFF31081012383F310880E4A32F868
S3150200355010309BB26BB90D4C0D4DB4F8FA3335F8F9
S3150200356010C09BB243EA0C0343F425439BB2A4F872
S31502003570FA3332F8103001339BB222F8103081F35D
S31502003580108830BC704700BF6031002200E0014065
S315020035900042000208B509490A688318B3F5005FBC
S315020035A003D807480B60104408BD00F0A3FA0C22AA
S315020035B003461A604FF0FF3008BD00BF6C3100228F
S315020035C060000022F8B506462F4C94F8503C03F0F2
S315020035D0FF05002BF9D187221023A4F8242C84F8A6
S315020035E0003C002E3DD101220023274981F8022CFE
S315020035F081F8013C91F8503C002BFBD1C6B14FF447
S315020036000C73214AA1F8483C92F8503CD907FBD4E6
S31502003610012347F2A83011211C4CC2F8444C82F80F
S31502003620403CA2F8140C82F8163C82F8001CF8BD45
S31502003630012347F2A830154C134AC1F8444C81F8CD
S31502003640403CA1F8140C81F8163C92F8003CDB07CA
S31502003650FBD492F8503C002BF7D1012382F8103CA0
S31502003660F8BD01272846FFF76BFF094B284683F86A
S315020036705370FFF735FF044A84F8207C92F8503CD9
S315020036801807FBD4AFE700BF003000400325050052
S3150200369000E0014000BE704708B500F035F8FCF7BF
S315020036A0FDFDFEE7F8B5174F05463E68A6B17C68F4
S315020036B006EB460604EB860602E00C34B4420BD057
S315020036C0637AAB42F9D1D4E900020021121A0C3412
S315020036D000F0F8F9B442F3D1BE6896B1FC6804EB87
S315020036E0061602E01034A6420BD0637BAB42F9D138
S315020036F0D4E90002A168121A103400F003FAA642B5
S31502003700F3D1F8BDD03F0002F8B5844A844B5A6122
S31502003710BFF34F8FBFF36F8F1B6803F47002B2F5CE
S31502003720801F00F0D48013F4600F00F0BC807D4A45
S31502003730136823F004031360BFF34F8FBFF36F8F39
S315020037404FF47002784B764C0020C4F88820A360B0
S31502003750FCF7F0FC0025FFF75BFB4AF202514FF43F
S315020037602542724B0120A3F8FA1383F8B05AA3F844
S31502003770FA23FCF7DFFC6E4B83F30A88694B1A685F
S31502003780910704D5A268B2F1007F00F0A480002060
S31502003790FFF788FFFFF738FAFFF7CEFD0320FFF7A2
S315020037A0CFFE00234FF00E0E1C464EF001E061499B
S315020037B003F10C0221F8224001330FF007C803205F
S315020037C0FFF78EFE0320FFF7BBFE5B4B03205C6018
S315020037D09C60DC601C61554CFFF782FED4F8D8333E
S315020037E09A0747D5D4F8D833504CD4F8D8335B0768
S315020037F027D5D4F8D8330120FFF754FFBFF34F8FF4
S31502003800BFF36F8F0024464BC3F85042BFF34F8F6E
S31502003810BFF36F8F494B4A4D5B1BA3424FEAA30688
S3150200382005DD55F8043B01349847A642F9DC02202F
S31502003830FCF780FCFFF744FEBDE8F840002000F0EC
S3150200384081B894F81431002BD5D00120FFF778FE09
S3150200385094F8143103F0C003802BF9D10023334AC4
S3150200386084F8143192F814313F2BFBD80120FFF76C
S3150200387037FEC0E794F81031002BB5D00120FFF7D0
S315020038805FFE94F8103103F0C003802BF9D10023B8
S31502003890264A84F8103192F810313F2BFBD80120CA
S315020038A0FFF71EFEA0E71F4A136843F004031360E6
S315020038B0BFF34F8FBFF36F8F4FF0E022936843F44D
S315020038C080339360BFF34F8FBFF36F8F38E71807CC
S315020038D07FF42DAF27E701211A695869C2F3C302A3
S315020038E0093201FA02F300260027DB0843F005C07D
S315020038F0E5E802670FF005C0C0F3C303093301FA16
S3150200390003F34FF00052DB0843F007C0AFF3008029
S31502003910E2E802670FF005C039E700BF01020E00B8
S3150200392000ED00E000E001E00000000200E00140DE
S3150200393060200022000D4040004020406842000204
S3150200394064420002704700BF024B0146186800F04D
S315020039502DB800BF04000022024B0146186800F091
S31502003960DFB800BF0400002270B50F4E0C460546B4
S31502003970316811B900F0AEF830602146284600F0F1
S31502003980A9F8431C03D14FF0FF34204670BDC41C76
S3150200399024F00304A042F8D0211A284600F09AF82F
S315020039A00130F2D1EFE700BF743100222DE9F8436E
S315020039B0CD1C064625F0030508350C2D38BF0C250F
S315020039C0002D01DBA94204D90C2333600020BDE897
S315020039D0F883DFF8D48000F069F8D8F800301C4686
S315020039E044BB29463046FFF7BFFF431C044658D165
S315020039F0D8F800402746002F43D1002C4BD023682D
S31502003A003946304604EB030900F064F8814542D199
S31502003A10216830466D1A2946FFF7A6FF01303AD0D3
S31502003A2023682B442360D8F800305A6862BBC8F872
S31502003A3000700FE02268521B20D40B2A17D9611995
S31502003A40A342256018BF5960636808BFC8F8001012
S31502003A5062514B60304600F02FF804F10B00231D33
S31502003A6020F00700C21A1CBF1B1AA350AFE76268F8
S31502003A70A3420CBFC8F800205A60EBE723466468ED
S31502003A80AEE73C467F68B6E71A465B68A342FBD1BF
S31502003A9000235360DEE70C233046336000F00CF857
S31502003AA094E70560D6E700BF78310022014800F0AE
S31502003AB027B800BFB8320022014800F022B800BF82
S31502003AC0B832002202440346934200D1704703F8FB
S31502003AD0011BF9E738B50023054D044608462B605D
S31502003AE0FFF758FD431C02D12B6803B1236038BD92
S31502003AF0B4320022014B1868704700BF040000224E
S31502003B00704770470A44431E914200D1704710B570
S31502003B1011F8014B914203F8014FF9D110BD000093
S31502003B2038B50546002941D051F8043C0C1F002B3C
S31502003B30B8BFE418FFF7BAFF1D4A136833B96360CA
S31502003B4014602846BDE83840FFF7B6BFA34208D93D
S31502003B50206821188B4201BF19685B680918216029
S31502003B60EDE71A465B680BB1A342FAD91168501801
S31502003B70A0420BD120680144501811608342E0D163
S31502003B8018685B68084453601060DAE702D90C23B0
S31502003B902B60D6E7206821188B4202BF19685B6842
S31502003BA00918636008BF21605460CAE738BD00BFC8
S31502003BB07831002203000000000000680004580269
S31502003BC000040000010000000000000000000000E8
S31502003BD0E0015603E00100000200000000000000C0
S31502003BE0400500048C00010000007B02580214000C
S31502003BF0010000000000000101000000000000FFBB
S31502003C0000000000000000000000000000000000AC
S31502003C10000000000000000000000000000000009C
S31502003C2000000000000000000000000001FFFF018C
S31502003C30DFDF00008902000200000000403C0002B3
S31502003C400100020000080003030303000000000055
S31502003C505D0000005C3C000200000000000C010B4D
S31502003C600C010000000C010B0D010000000C010B01
S31502003C700E010000000C010B0F01000000040119E7
S31502003C800702000000000100080200000000010017
S31502003C9009020000000001000A0200000000010003
S31502003CA00B020000000C010B00030000000C010BCC
S31502003CB001030000000C010B02030000000C010BC3
S31502003CC003050000000C010B04050000000C010BAB
S31502003CD005050000000C010B06050000000C010B97
S31502003CE007050000000C010B08050000000C010B83
S31502003CF009050000000C010B0A0500000004011969
S31502003D000D050000050000000E050000000C01195B
S31502003D100F050000000C010B07060000000C010B4A
S31502003D2008060000000C010B09060000000C010B3E
S31502003D300A060000000C010B0B060000000C010B2A
S31502003D400C060000000C010B0D060000000C010B16
S31502003D500E060000000C010B0F06000000040119FC
S31502003D60070700000400000008070000000C011904
S31502003D700A070000000401190B07000000040119DC
S31502003D800C070000000401190D07000000040119C8
S31502003D900E070000000401190F07000000040119B4
S31502003DA005080000000401190608000000040119B4
S31502003DB007080000000C010B0D08000000040119A1
S31502003DC00209000000040119030900000004011998
S31502003DD004090000000401190A090000000401197F
S31502003DE00B090000000401190C0900000004011966
S31502003DF00D090000000401190E0900000004011952
S31502003E000F090000000C010B000A0000000C010B58
S31502003E10010A0000000C010B020A0000000C010B53
S31502003E20030A0000000C010B040A0000000C010B3F
S31502003E30050A0000000C010B060A0000000C010B2B
S31502003E40080A0000000C010B090A0000000C010B15
S31502003E500A0A0000000C010B0B0A0000000C010B01
S31502003E600C0A0000000C010B0D0A0000000C010BED
S31502003E700E0A0000000C010B0F0A000000040119D3
S31502003E80000B000000040119010B000000040119D7
S31502003E90020B000000040119030B000000040119C3
S31502003EA0040B000000040119050B000000040119AF
S31502003EB0060B000000040119070B0000000C010BA1
S31502003EC0000C0000000C010B010C0000000C010BA1
S31502003ED0020C0000000C010B030C0000000C010B8D
S31502003EE0040C0000000C010B050C0000000C010B79
S31502003EF0060C0000000C010B070C0000000C010B65
S31502003F00080C0000000C010B090C0000000C010B50
S31502003F100A0C0000000C010B0B0C0000000C010B3C
S31502003F200C0C0000000C010B0D0C0000000C010B28
S31502003F300E0C0000000C010B0F0C0000000C010B14
S31502003F40000D000085038203000800000000000047
S31502003F5000020000000A000000010000000000004C
S31502003F60000001010101010100010001000101013E
S31502003F700001010000010101000000000001010032
S31502003F800001010100010101000000000000000023
S31502003F9000010100020403040404000000010200FF
S31502003FA000010203000000002000200010001000A3
S31502003FB010000800040001000401000203050607C0
S31502003FC00C343440143434401C34344024343440E9
S31502003FD00A000000884100021800000008400002A2
S31502003FE004000000E83F00020000006800000068CC
S31502003FF000000080000000800000007000000070D9
S3150200400060000022600000220000006800000068D4
S31502004010000000900001090D000000680000006821
S315020040200000007800010B0D000000680000006827
S31502004030000000270001020D000000680000006871
S31502004040480000020001010D00000080000000800F
S3150200405000000090000109080000008000000080B6
S315020040600000007800010B080000008000000080BC
S315020040700000002700010208000000800000008006
S3150200408048000002000101080000007000000070F4
S31502004090000000900001090A000000700000007094
S315020040A00000007800010B0A00000070000000709A
S315020040B0000000270001020A0000007000000070E4
S315020040C0480000020001010A000000000000000092
S315020040D00000009001010905000000000000000038
S315020040E00000007801010B0500000000000000003E
S315020040F00000002701000205000000000000000089
S315020041004800000201000105000000200000002016
S3150200411000000090010109040000002000000020B8
S315020041200000007801010B040000002000000020BE
S315020041300000002701000204000000200000002009
S3150200414048000002010001040000002200000022D3
S315020041500000009000010903000000220000002276
S315020041600000007800010B0300000022000000227C
S315020041700000002700000203000000225400002273
S315020041804800000200000103000000680000006809
S315020041900001000D00004B6800004B680001000D95
S315020041A0000000800000008000010008000000807E
S315020041B0000000800001000800000070000000708E
S315020041C00001000A00000070000000700001000AF1
S315020041D000000000000000000100000500000020B1
S315020041E000000020010000045400002260000022AA
S315020041F00000000390300022B932002200000003C2
S315020042000100020008001000200000004275696CDF
S315020042107420776974682052656E657361732041F4
S315020042206476616E63656420466C657869626C6566
S3150200423020536F667477617265205061636B6167A4
S31502004240652076657273696F6E20362E352E3000C4
S31102004250362E352E300000000000050658
S3090200425CF8B500BFEA
S30902004260F8B500BFE6
S309020042640D0100023E
S30902004268E500000263
S7050200369929
